{
    "contractName": "ETHStorage",
    "abi": [
        {
            "inputs": [],
            "stateMutability": "nonpayable",
            "type": "constructor"
        },
        {
            "anonymous": false,
            "inputs": [
                {
                    "indexed": false,
                    "internalType": "uint256",
                    "name": "amount",
                    "type": "uint256"
                }
            ],
            "name": "Bought",
            "type": "event"
        },
        {
            "anonymous": false,
            "inputs": [
                {
                    "indexed": false,
                    "internalType": "uint256",
                    "name": "amount",
                    "type": "uint256"
                }
            ],
            "name": "Sold",
            "type": "event"
        },
        {
            "anonymous": false,
            "inputs": [
                {
                    "indexed": false,
                    "internalType": "uint256",
                    "name": "amount",
                    "type": "uint256"
                }
            ],
            "name": "Withdrawn",
            "type": "event"
        },
        {
            "inputs": [],
            "name": "buyToken",
            "outputs": [],
            "stateMutability": "payable",
            "type": "function"
        },
        {
            "inputs": [],
            "name": "contractTokenBalance",
            "outputs": [
                {
                    "internalType": "uint256",
                    "name": "",
                    "type": "uint256"
                }
            ],
            "stateMutability": "view",
            "type": "function"
        },
        {
            "inputs": [],
            "name": "deposit",
            "outputs": [],
            "stateMutability": "payable",
            "type": "function"
        },
        {
            "inputs": [],
            "name": "depositBalance",
            "outputs": [
                {
                    "internalType": "uint256",
                    "name": "",
                    "type": "uint256"
                }
            ],
            "stateMutability": "view",
            "type": "function"
        },
        {
            "inputs": [],
            "name": "getBalance",
            "outputs": [
                {
                    "internalType": "uint256",
                    "name": "",
                    "type": "uint256"
                }
            ],
            "stateMutability": "view",
            "type": "function"
        },
        {
            "inputs": [],
            "name": "getEstimatedDaiForEth",
            "outputs": [
                {
                    "internalType": "uint256[]",
                    "name": "",
                    "type": "uint256[]"
                }
            ],
            "stateMutability": "view",
            "type": "function"
        },
        {
            "inputs": [
                {
                    "internalType": "uint256",
                    "name": "amount",
                    "type": "uint256"
                }
            ],
            "name": "sellToken",
            "outputs": [],
            "stateMutability": "payable",
            "type": "function"
        },
        {
            "inputs": [],
            "name": "token",
            "outputs": [
                {
                    "internalType": "contract IERC20",
                    "name": "",
                    "type": "address"
                }
            ],
            "stateMutability": "view",
            "type": "function"
        },
        {
            "inputs": [],
            "name": "tokenBalance",
            "outputs": [
                {
                    "internalType": "uint256",
                    "name": "",
                    "type": "uint256"
                }
            ],
            "stateMutability": "view",
            "type": "function"
        },
        {
            "inputs": [],
            "name": "uniswapRouter",
            "outputs": [
                {
                    "internalType": "contract IUniswapV2Router02",
                    "name": "",
                    "type": "address"
                }
            ],
            "stateMutability": "view",
            "type": "function"
        },
        {
            "inputs": [],
            "name": "withdrawDepositInDai",
            "outputs": [],
            "stateMutability": "payable",
            "type": "function"
        },
        {
            "stateMutability": "payable",
            "type": "receive"
        }
    ],
    "bytecode": "6080604052600080546001600160a01b03191673c7ad46e0b8a400bb3c915120d284aafba8fc473517905534801561003657600080fd5b50600380546001600160a01b031916737a250d5630b4cf539739df2c5dacb4c659f2488d17905560405169152d02c7e14af680000090610075906100bd565b908152602001604051809103906000f080158015610097573d6000803e3d6000fd5b50600280546001600160a01b0319166001600160a01b03929092169190911790556100ca565b61071580610dd983390190565b610d00806100d96000396000f3fe6080604052600436106100a05760003560e01c80639e1a4d19116100645780639e1a4d19146101455780639e9aed621461015a578063a23e6e9d1461016f578063a482171914610191578063d0e30db014610199578063fc0c546a146101a157600080fd5b806312065fe0146100ac5780632397e4d7146100ce57806324c5f56b146100e357806361bc1a49146100eb578063735de9f71461010d57600080fd5b366100a757005b600080fd5b3480156100b857600080fd5b50475b6040519081526020015b60405180910390f35b6100e16100dc366004610a0f565b6101c1565b005b6100e16103db565b3480156100f757600080fd5b50336000908152600160205260409020546100bb565b34801561011957600080fd5b5060035461012d906001600160a01b031681565b6040516001600160a01b0390911681526020016100c5565b34801561015157600080fd5b506100bb610498565b34801561016657600080fd5b506100bb61050b565b34801561017b57600080fd5b5061018461053c565b6040516100c59190610a28565b6100e16105bc565b6100e1610789565b3480156101ad57600080fd5b5060025461012d906001600160a01b031681565b600081116102245760405162461bcd60e51b815260206004820152602560248201527f596f75206e65656420746f2073656c6c206174206c6561737420736f6d6520746044820152646f6b656e7360d81b60648201526084015b60405180910390fd5b600254604051636eb1769f60e11b81523360048201523060248201526000916001600160a01b03169063dd62ed3e90604401602060405180830381865afa158015610273573d6000803e3d6000fd5b505050506040513d601f19601f820116820180604052508101906102979190610a6c565b9050818110156102e95760405162461bcd60e51b815260206004820152601960248201527f436865636b2074686520746f6b656e20616c6c6f77616e636500000000000000604482015260640161021b565b6002546040516323b872dd60e01b8152336004820152306024820152604481018490526001600160a01b03909116906323b872dd906064016020604051808303816000875af1158015610340573d6000803e3d6000fd5b505050506040513d601f19601f820116820180604052508101906103649190610a85565b50336108fc61037a8466038d7ea4c68000610ac4565b6040518115909202916000818181858888f193505050501580156103a2573d6000803e3d6000fd5b506040518281527f92f64ca637d023f354075a4be751b169c1a8a9ccb6d33cdd0cb3520543995727906020015b60405180910390a15050565b33600090815260016020526040812054906103f461053c565b60008151811061040657610406610ae3565b602002602001015190506000818361041e9190610ac4565b90506000606461042f836062610ac4565b6104399190610af9565b90506104468482336107af565b3360009081526001602052604080822091909155517f430648de173157e069201c943adb2d4e340e7cf5b27b1b09c9cb852f03d63b569061048a9083815260200190565b60405180910390a150505050565b6002546040516370a0823160e01b81523360048201526000916001600160a01b0316906370a08231906024015b602060405180830381865afa1580156104e2573d6000803e3d6000fd5b505050506040513d601f19601f820116820180604052508101906105069190610a6c565b905090565b6002546040516370a0823160e01b81523060048201526000916001600160a01b0316906370a08231906024016104c5565b6003546060906001600160a01b0316631f00ca74600161055a610849565b6040518363ffffffff1660e01b8152600401610577929190610b5f565b600060405180830381865afa158015610594573d6000803e3d6000fd5b505050506040513d6000823e601f3d908101601f191682016040526105069190810190610b96565b60006105cf66038d7ea4c6800034610af9565b6002546040516370a0823160e01b81523060048201529192506000916001600160a01b03909116906370a0823190602401602060405180830381865afa15801561061d573d6000803e3d6000fd5b505050506040513d601f19601f820116820180604052508101906106419190610a6c565b9050600082116106935760405162461bcd60e51b815260206004820152601b60248201527f596f75206e65656420746f2073656e6420736f6d652065746865720000000000604482015260640161021b565b808211156106e35760405162461bcd60e51b815260206004820181905260248201527f4e6f7420656e6f75676820746f6b656e7320696e207468652072657365727665604482015260640161021b565b60025460405163a9059cbb60e01b8152336004820152602481018490526001600160a01b039091169063a9059cbb906044016020604051808303816000875af1158015610734573d6000803e3d6000fd5b505050506040513d601f19601f820116820180604052508101906107589190610a85565b506040518281527f4e08ba899977cf7d4c2964bce71c6b9a7ef76ee5166a4c1249a1e08016e33ef1906020016103cf565b33600090815260016020526040812080543492906107a8908490610c54565b9091555050565b60006107bc42600f610c54565b6003549091506001600160a01b031663fb3bdb4185856107da610939565b86866040518663ffffffff1660e01b81526004016107fb9493929190610c6c565b60006040518083038185885af1158015610819573d6000803e3d6000fd5b50505050506040513d6000823e601f3d908101601f191682016040526108429190810190610b96565b5050505050565b6040805160028082526060808301845292600092919060208301908036833750506000805483519394506001600160a01b03169284925061088c5761088c610ae3565b6001600160a01b03928316602091820292909201810191909152600354604080516315ab88c960e31b81529051919093169263ad5c46489260048083019391928290030181865afa1580156108e5573d6000803e3d6000fd5b505050506040513d601f19601f820116820180604052508101906109099190610ca1565b8160018151811061091c5761091c610ae3565b6001600160a01b0390921660209283029190910190910152919050565b604080516002808252606080830184529260009291906020830190803683375050600354604080516315ab88c960e31b815290519394506001600160a01b039091169263ad5c4648925060048083019260209291908290030181865afa1580156109a7573d6000803e3d6000fd5b505050506040513d601f19601f820116820180604052508101906109cb9190610ca1565b816000815181106109de576109de610ae3565b6001600160a01b03928316602091820292909201015260005482519116908290600190811061091c5761091c610ae3565b600060208284031215610a2157600080fd5b5035919050565b6020808252825182820181905260009190848201906040850190845b81811015610a6057835183529284019291840191600101610a44565b50909695505050505050565b600060208284031215610a7e57600080fd5b5051919050565b600060208284031215610a9757600080fd5b81518015158114610aa757600080fd5b9392505050565b634e487b7160e01b600052601160045260246000fd5b6000816000190483118215151615610ade57610ade610aae565b500290565b634e487b7160e01b600052603260045260246000fd5b600082610b1657634e487b7160e01b600052601260045260246000fd5b500490565b600081518084526020808501945080840160005b83811015610b545781516001600160a01b031687529582019590820190600101610b2f565b509495945050505050565b828152604060208201526000610b786040830184610b1b565b949350505050565b634e487b7160e01b600052604160045260246000fd5b60006020808385031215610ba957600080fd5b825167ffffffffffffffff80821115610bc157600080fd5b818501915085601f830112610bd557600080fd5b815181811115610be757610be7610b80565b8060051b604051601f19603f83011681018181108582111715610c0c57610c0c610b80565b604052918252848201925083810185019188831115610c2a57600080fd5b938501935b82851015610c4857845184529385019392850192610c2f565b98975050505050505050565b60008219821115610c6757610c67610aae565b500190565b848152608060208201526000610c856080830186610b1b565b6001600160a01b03949094166040830152506060015292915050565b600060208284031215610cb357600080fd5b81516001600160a01b0381168114610aa757600080fdfea26469706673582212205a6a00d59651d0b98ae85e145cc61d748050be45a4b833154c93699afeb5302c64736f6c634300080a0033608060405234801561001057600080fd5b5060405161071538038061071583398101604081905261002f91610049565b600281905533600090815260208190526040902055610062565b60006020828403121561005b57600080fd5b5051919050565b6106a4806100716000396000f3fe6080604052600436106100915760003560e01c806370a082311161005957806370a082311461017457806395d89b41146101aa578063a0712d68146101d9578063a9059cbb146101ee578063dd62ed3e1461020e57600080fd5b806306fdde0314610096578063095ea7b3146100de57806318160ddd1461010e57806323b872dd1461012d578063313ce5671461014d575b600080fd5b3480156100a257600080fd5b506100c86040518060400160405280600681526020016526b0b9ba32b960d11b81525081565b6040516100d591906104e4565b60405180910390f35b3480156100ea57600080fd5b506100fe6100f9366004610555565b610254565b60405190151581526020016100d5565b34801561011a57600080fd5b506002545b6040519081526020016100d5565b34801561013957600080fd5b506100fe61014836600461057f565b6102c0565b34801561015957600080fd5b50610162601281565b60405160ff90911681526020016100d5565b34801561018057600080fd5b5061011f61018f3660046105bb565b6001600160a01b031660009081526020819052604090205490565b3480156101b657600080fd5b506100c8604051806040016040528060038152602001624d534360e81b81525081565b6101ec6101e73660046105dd565b61040b565b005b3480156101fa57600080fd5b506100fe610209366004610555565b610432565b34801561021a57600080fd5b5061011f6102293660046105f6565b6001600160a01b03918216600090815260016020908152604080832093909416825291909152205490565b3360008181526001602090815260408083206001600160a01b038716808552925280832085905551919290917f8c5be1e5ebec7d5bd14f71427d1e84f3dd0314c0f7b2291e5b200ac8c7c3b925906102af9086815260200190565b60405180910390a350600192915050565b6001600160a01b0383166000908152602081905260408120548211156102e557600080fd5b6001600160a01b038416600090815260016020908152604080832033845290915290205482111561031557600080fd5b6001600160a01b03841660009081526020819052604090205461033990839061063f565b6001600160a01b03851660009081526020818152604080832093909355600181528282203383529052205461036f90839061063f565b6001600160a01b03808616600090815260016020908152604080832033845282528083209490945591861681529081905220546103ad908390610656565b6001600160a01b038481166000818152602081815260409182902094909455518581529092918716917fddf252ad1be2c89b69c2b068fc378daa952ba7f163c4a11628f55a4df523b3ef910160405180910390a35060019392505050565b336000908152602081905260408120805483929061042a908490610656565b909155505050565b3360009081526020819052604081205482111561044e57600080fd5b3360009081526020819052604090205461046990839061063f565b33600090815260208190526040808220929092556001600160a01b03851681522054610496908390610656565b6001600160a01b038416600081815260208181526040918290209390935551848152909133917fddf252ad1be2c89b69c2b068fc378daa952ba7f163c4a11628f55a4df523b3ef91016102af565b600060208083528351808285015260005b81811015610511578581018301518582016040015282016104f5565b81811115610523576000604083870101525b50601f01601f1916929092016040019392505050565b80356001600160a01b038116811461055057600080fd5b919050565b6000806040838503121561056857600080fd5b61057183610539565b946020939093013593505050565b60008060006060848603121561059457600080fd5b61059d84610539565b92506105ab60208501610539565b9150604084013590509250925092565b6000602082840312156105cd57600080fd5b6105d682610539565b9392505050565b6000602082840312156105ef57600080fd5b5035919050565b6000806040838503121561060957600080fd5b61061283610539565b915061062060208401610539565b90509250929050565b634e487b7160e01b600052601160045260246000fd5b60008282101561065157610651610629565b500390565b6000821982111561066957610669610629565b50019056fea2646970667358221220eab44dd640db7f40bb3edd4acc71490bb6c25b4c9a7b66fd3f31ce0a0a2edfb064736f6c634300080a0033",
    "sourcePath": "/home/maks/projects/web3_msc/eth/contracts/ETHStorage.sol",
    "compiler": {
        "name": "solc",
        "version": "0.8.10+commit.fc410830"
    },
    "functionHashes": {
        "buyToken()": "a4821719",
        "contractTokenBalance()": "9e9aed62",
        "deposit()": "d0e30db0",
        "depositBalance()": "61bc1a49",
        "getBalance()": "12065fe0",
        "getEstimatedDaiForEth()": "a23e6e9d",
        "sellToken(uint256)": "2397e4d7",
        "token()": "fc0c546a",
        "tokenBalance()": "9e1a4d19",
        "uniswapRouter()": "735de9f7",
        "withdrawDepositInDai()": "24c5f56b"
    },
    "gasEstimates": {
        "creation": {
            "codeDepositCost": "665600",
            "executionCost": "infinite",
            "totalCost": "infinite"
        },
        "external": {
            "buyToken()": "infinite",
            "contractTokenBalance()": "infinite",
            "deposit()": "24573",
            "depositBalance()": "2416",
            "getBalance()": "173",
            "getEstimatedDaiForEth()": "infinite",
            "sellToken(uint256)": "infinite",
            "token()": "2447",
            "tokenBalance()": "infinite",
            "uniswapRouter()": "2426",
            "withdrawDepositInDai()": "infinite"
        },
        "internal": {
            "convertEthToDai(uint256,uint256,address)": "infinite",
            "getPathForDaiToEth()": "infinite",
            "getPathForETHtoDAI()": "infinite"
        }
    }
}