{
    "contractName": "MasterToken",
    "abi": [
        {
            "inputs": [
                {
                    "internalType": "uint256",
                    "name": "total",
                    "type": "uint256"
                }
            ],
            "stateMutability": "nonpayable",
            "type": "constructor"
        },
        {
            "anonymous": false,
            "inputs": [
                {
                    "indexed": true,
                    "internalType": "address",
                    "name": "owner",
                    "type": "address"
                },
                {
                    "indexed": true,
                    "internalType": "address",
                    "name": "spender",
                    "type": "address"
                },
                {
                    "indexed": false,
                    "internalType": "uint256",
                    "name": "value",
                    "type": "uint256"
                }
            ],
            "name": "Approval",
            "type": "event"
        },
        {
            "anonymous": false,
            "inputs": [
                {
                    "indexed": true,
                    "internalType": "address",
                    "name": "from",
                    "type": "address"
                },
                {
                    "indexed": true,
                    "internalType": "address",
                    "name": "to",
                    "type": "address"
                },
                {
                    "indexed": false,
                    "internalType": "uint256",
                    "name": "value",
                    "type": "uint256"
                }
            ],
            "name": "Transfer",
            "type": "event"
        },
        {
            "inputs": [
                {
                    "internalType": "address",
                    "name": "owner",
                    "type": "address"
                },
                {
                    "internalType": "address",
                    "name": "delegate",
                    "type": "address"
                }
            ],
            "name": "allowance",
            "outputs": [
                {
                    "internalType": "uint256",
                    "name": "",
                    "type": "uint256"
                }
            ],
            "stateMutability": "view",
            "type": "function"
        },
        {
            "inputs": [
                {
                    "internalType": "address",
                    "name": "delegate",
                    "type": "address"
                },
                {
                    "internalType": "uint256",
                    "name": "numTokens",
                    "type": "uint256"
                }
            ],
            "name": "approve",
            "outputs": [
                {
                    "internalType": "bool",
                    "name": "",
                    "type": "bool"
                }
            ],
            "stateMutability": "nonpayable",
            "type": "function"
        },
        {
            "inputs": [
                {
                    "internalType": "address",
                    "name": "tokenOwner",
                    "type": "address"
                }
            ],
            "name": "balanceOf",
            "outputs": [
                {
                    "internalType": "uint256",
                    "name": "",
                    "type": "uint256"
                }
            ],
            "stateMutability": "view",
            "type": "function"
        },
        {
            "inputs": [],
            "name": "decimals",
            "outputs": [
                {
                    "internalType": "uint8",
                    "name": "",
                    "type": "uint8"
                }
            ],
            "stateMutability": "view",
            "type": "function"
        },
        {
            "inputs": [
                {
                    "internalType": "uint256",
                    "name": "quantity",
                    "type": "uint256"
                }
            ],
            "name": "mint",
            "outputs": [],
            "stateMutability": "payable",
            "type": "function"
        },
        {
            "inputs": [],
            "name": "name",
            "outputs": [
                {
                    "internalType": "string",
                    "name": "",
                    "type": "string"
                }
            ],
            "stateMutability": "view",
            "type": "function"
        },
        {
            "inputs": [],
            "name": "symbol",
            "outputs": [
                {
                    "internalType": "string",
                    "name": "",
                    "type": "string"
                }
            ],
            "stateMutability": "view",
            "type": "function"
        },
        {
            "inputs": [],
            "name": "totalSupply",
            "outputs": [
                {
                    "internalType": "uint256",
                    "name": "",
                    "type": "uint256"
                }
            ],
            "stateMutability": "view",
            "type": "function"
        },
        {
            "inputs": [
                {
                    "internalType": "address",
                    "name": "receiver",
                    "type": "address"
                },
                {
                    "internalType": "uint256",
                    "name": "numTokens",
                    "type": "uint256"
                }
            ],
            "name": "transfer",
            "outputs": [
                {
                    "internalType": "bool",
                    "name": "",
                    "type": "bool"
                }
            ],
            "stateMutability": "nonpayable",
            "type": "function"
        },
        {
            "inputs": [
                {
                    "internalType": "address",
                    "name": "owner",
                    "type": "address"
                },
                {
                    "internalType": "address",
                    "name": "buyer",
                    "type": "address"
                },
                {
                    "internalType": "uint256",
                    "name": "numTokens",
                    "type": "uint256"
                }
            ],
            "name": "transferFrom",
            "outputs": [
                {
                    "internalType": "bool",
                    "name": "",
                    "type": "bool"
                }
            ],
            "stateMutability": "nonpayable",
            "type": "function"
        }
    ],
    "bytecode": "608060405234801561001057600080fd5b5060405161071538038061071583398101604081905261002f91610049565b600281905533600090815260208190526040902055610062565b60006020828403121561005b57600080fd5b5051919050565b6106a4806100716000396000f3fe6080604052600436106100915760003560e01c806370a082311161005957806370a082311461017457806395d89b41146101aa578063a0712d68146101d9578063a9059cbb146101ee578063dd62ed3e1461020e57600080fd5b806306fdde0314610096578063095ea7b3146100de57806318160ddd1461010e57806323b872dd1461012d578063313ce5671461014d575b600080fd5b3480156100a257600080fd5b506100c86040518060400160405280600681526020016526b0b9ba32b960d11b81525081565b6040516100d591906104e4565b60405180910390f35b3480156100ea57600080fd5b506100fe6100f9366004610555565b610254565b60405190151581526020016100d5565b34801561011a57600080fd5b506002545b6040519081526020016100d5565b34801561013957600080fd5b506100fe61014836600461057f565b6102c0565b34801561015957600080fd5b50610162601281565b60405160ff90911681526020016100d5565b34801561018057600080fd5b5061011f61018f3660046105bb565b6001600160a01b031660009081526020819052604090205490565b3480156101b657600080fd5b506100c8604051806040016040528060038152602001624d534360e81b81525081565b6101ec6101e73660046105dd565b61040b565b005b3480156101fa57600080fd5b506100fe610209366004610555565b610432565b34801561021a57600080fd5b5061011f6102293660046105f6565b6001600160a01b03918216600090815260016020908152604080832093909416825291909152205490565b3360008181526001602090815260408083206001600160a01b038716808552925280832085905551919290917f8c5be1e5ebec7d5bd14f71427d1e84f3dd0314c0f7b2291e5b200ac8c7c3b925906102af9086815260200190565b60405180910390a350600192915050565b6001600160a01b0383166000908152602081905260408120548211156102e557600080fd5b6001600160a01b038416600090815260016020908152604080832033845290915290205482111561031557600080fd5b6001600160a01b03841660009081526020819052604090205461033990839061063f565b6001600160a01b03851660009081526020818152604080832093909355600181528282203383529052205461036f90839061063f565b6001600160a01b03808616600090815260016020908152604080832033845282528083209490945591861681529081905220546103ad908390610656565b6001600160a01b038481166000818152602081815260409182902094909455518581529092918716917fddf252ad1be2c89b69c2b068fc378daa952ba7f163c4a11628f55a4df523b3ef910160405180910390a35060019392505050565b336000908152602081905260408120805483929061042a908490610656565b909155505050565b3360009081526020819052604081205482111561044e57600080fd5b3360009081526020819052604090205461046990839061063f565b33600090815260208190526040808220929092556001600160a01b03851681522054610496908390610656565b6001600160a01b038416600081815260208181526040918290209390935551848152909133917fddf252ad1be2c89b69c2b068fc378daa952ba7f163c4a11628f55a4df523b3ef91016102af565b600060208083528351808285015260005b81811015610511578581018301518582016040015282016104f5565b81811115610523576000604083870101525b50601f01601f1916929092016040019392505050565b80356001600160a01b038116811461055057600080fd5b919050565b6000806040838503121561056857600080fd5b61057183610539565b946020939093013593505050565b60008060006060848603121561059457600080fd5b61059d84610539565b92506105ab60208501610539565b9150604084013590509250925092565b6000602082840312156105cd57600080fd5b6105d682610539565b9392505050565b6000602082840312156105ef57600080fd5b5035919050565b6000806040838503121561060957600080fd5b61061283610539565b915061062060208401610539565b90509250929050565b634e487b7160e01b600052601160045260246000fd5b60008282101561065157610651610629565b500390565b6000821982111561066957610669610629565b50019056fea2646970667358221220eab44dd640db7f40bb3edd4acc71490bb6c25b4c9a7b66fd3f31ce0a0a2edfb064736f6c634300080a0033",
    "sourcePath": "/home/maks/projects/web3_msc/eth/contracts/MasterToken.sol",
    "compiler": {
        "name": "solc",
        "version": "0.8.10+commit.fc410830"
    },
    "functionHashes": {
        "allowance(address,address)": "dd62ed3e",
        "approve(address,uint256)": "095ea7b3",
        "balanceOf(address)": "70a08231",
        "decimals()": "313ce567",
        "mint(uint256)": "a0712d68",
        "name()": "06fdde03",
        "symbol()": "95d89b41",
        "totalSupply()": "18160ddd",
        "transfer(address,uint256)": "a9059cbb",
        "transferFrom(address,address,uint256)": "23b872dd"
    },
    "gasEstimates": {
        "creation": {
            "codeDepositCost": "340000",
            "executionCost": "infinite",
            "totalCost": "infinite"
        },
        "external": {
            "allowance(address,address)": "infinite",
            "approve(address,uint256)": "24522",
            "balanceOf(address)": "2540",
            "decimals()": "293",
            "mint(uint256)": "24612",
            "name()": "infinite",
            "symbol()": "infinite",
            "totalSupply()": "2326",
            "transfer(address,uint256)": "53362",
            "transferFrom(address,address,uint256)": "infinite"
        }
    }
}